:1000000000308A0090280000CC2244104F270D05B4
:100010000000CC2244104F23C6060A00CC22441014
:10002000422649274B10CD27C4220D050001553724
:10003000E432E634EE326410C337ED366137E4065D
:100040000A008C1E21281808A0001A08F800A01C1D
:100050002B28181218168A110A12AB280B08A300B5
:100060008B13831603178C170C14000000008312E7
:100070000C087F39031977280313A40003170D0810
:100080000313A50003170F080313A60024080C1E72
:1000900047289900250803178D0003132608031726
:1000A0008F0083168C170C140000000083120C0DB7
:1000B0000E0D7F39031977280313A40003170D08C9
:1000C0000313A50003170F080313A60024080C1E32
:1000D00067289900250803178D00031326080317C6
:1000E0008F008D0A03198F0A031331280317031396
:1000F000A31B8B1708002330840083130008031907
:100100008F280130F800F701F70B8428F80B8328BB
:100110004A30F700F70B8A288D28800B81280800C9
:1001200003081F398300A001193083169900A630F7
:100130009800903083129800A10183161F149F1419
:100140001F159F1107309C008313061083120610A1
:100150008C1EE42821287808A2002208313C031DC7
:10016000BE28A1018316061083120614043003175B
:100170008D0000308F0003132E20E4282208303C2D
:10018000031DCF28A1018316061083120610093023
:1001900003178D0000308F0003132E20E42822085F
:1001A000323C031DDD280130A1000E3003178D0005
:1001B00000308F0003132E20E428173003178D0022
:1001C00000308F0003132E20A1080319F528831691
:1001D0000610831206146430A3007B2083160610D9
:0E01E000831206106430A3007B20A828630061
:02400E00313F40
:00000001FF
;PIC16F877A
;CRC=7471  CREATED="20-Aug-25 09:34"
