:1000000002308A009A2A00000A108A100A11820718
:1000100028340C34013406340A108A100A1182077D
:1000200041344D3400340A108A100A1182075034CA
:100030004D3400342E3084008313000803192E2819
:100040000130F800F701F70B2328F80B22284A307B
:10005000F700F70B29282C28800B202808003518DA
:100060003328081234280816831608128312B5188C
:100070003B2888123C28881683168812831235196B
:100080004328081344280817831608138312B51948
:100090004B2888134C288817831688130000831276
:1000A00008148316081054288312081083160810A9
:1000B00083120800B6018316081600308312081A4E
:1000C0000130B6048316881600308312881A013076
:1000D000F7000310F70D7708B604831608170030F1
:1000E0008312081B0130F700F70DF70DFC30F70500
:1000F0007708B6048316881700308312881B0130F6
:10010000F700F70DF70DF70DF830F7057708B6048F
:100110003608F800080083160810881008118312AA
:1001200088108316881008168816081788178312F7
:10013000081583160811000083120814831608108E
:10014000000083125A207808B500081083160810A2
:1001500000008312081483160810000083125A202E
:100160007808B400081083160810081288120813C3
:1001700088138312350EF700F030F7057708340442
:10018000F8007808B400B41FC72883169328B20873
:10019000031DCC288810CD288814831688100000F1
:1001A00083120811831608110000831208108316A9
:1001B00008108312330EB4000F30B4053408B500B4
:1001C0002F2033080F39B400B5002F200800831604
:1001D0000812881208138813081088100811831257
:1001E0008810831688108312081183160811831251
:1001F0000810831608100F308312AE001A20013049
:10020000A7002708033C031C0D290330B5002F204D
:100210000530AE001A20A70A01290230B5002F20B0
:100220000530AE001A20A7012708033C031C212932
:1002300027080420A800B2012808B3008B20A70AD1
:1002400014298A110A12A92A0830F800000087111F
:10025000A01120088316870000008312A70D071243
:10026000031C382920162008831687003C29831296
:10027000201220088316870000008312A015200892
:10028000831687008312871D4329F80B2629000057
:100290008711A01120088316870000008312201602
:1002A000200883168700000000008312A015200894
:1002B000831687008312871D5B29F8010000071A47
:1002C00078148711A0112008831687008312071263
:1002D0002012200883168700831208000830A80027
:1002E0007708A900201620088316870000008312D3
:1002F000A0152008831687008312871D7D29071A01
:100300000314071E0310F80D0000A0112008831627
:10031000870083128711A80B7229201620088316E4
:100320008700000083120712290803199C29201254
:1003300020088316870083120000A015200883166A
:1003400087008312871DA22900008711A0112008B1
:1003500083168700000083120712201220088316DC
:10036000870083120800F701F801290803102A18F2
:10037000F707F70CF80CAA18F707F70CF80C2A196E
:10038000F707F70CF80CAA19F707F70CF80C2A1A5C
:10039000F707F70CF80CAA1AF707F70CF80C2A1B4A
:1003A000F707F70CF80CAA1BF707F70CF80C080076
:1003B0002F0BDB29DE294030B000DF29B0010130EE
:1003C0002E02B00730088038B100B2013108B30006
:1003D0008B2008002E08F8012D020318F2292D08A1
:1003E000F700FE29F7010830AF00AD0DF70D2E081C
:1003F00077020318F700F80DAF0BF52908002D0858
:10040000073A03190D2A0B3A0319122A063A03195F
:100410001A2A023A0319202A252A0130AE00AF0019
:10042000D8212A2AB2010130B3008B200230AE005D
:100430001A202A2A0130AE000230AF00D8212A2A21
:10044000B2011030B3008B202A2A0130B2002D08EF
:10045000B3008B2008002030281E3030A900270868
:10046000F700A71F3B2AF709F70A7708A7002D30E6
:10047000A900A81728142708AD006430AE00EA21AF
:100480007708A70030307807AA002708AD000A30A7
:10049000AE00EA2130307707AC0030307807AB008F
:1004A0002908F70030302A0203195A2AA814A81B79
:1004B00028156E2A28196E2A2908AA00A818652A64
:1004C00030302B020319682A2814A81BA8146E2A9E
:1004D000031D2814031D6E2A2A08AB002819752A4B
:1004E000A818782A28187B2A7E2A2908AD00FF211F
:1004F0002A08AD00FF212B08AD00FF212C08AD001C
:10050000FF21080080080319972AA8010408A70002
:100510002810831B28140008AD00FF212708840041
:10052000831328188317840A0319850A822A8A11DB
:100530000A12A52B03081F398300FF30A000831681
:100540001F149F141F159F1107309C0083138312E3
:10055000E728201620088316870000008312A015C4
:10056000200883168700000083120712201220083B
:1005700083168700000083128711A01120088316BC
:100580008700D0308312A7002421A7012421201640
:1005900020088316870000008312A0152008831608
:1005A000870000008312871DD32A0712201220081B
:1005B00083168700000083128711A011200883167C
:1005C0008700D1308312A70024210130F7006E216B
:1005D0007808A1000130F7006E217808A200F70129
:1005E0006E217808A30020122008831687000000DF
:1005F0008312A0152008831687008312871DFE2A08
:100600000000022B0000201620088316870000003F
:100610008312210EF7000F30F7057708A800A90014
:100620000A30AA00B32121080F397807A100220E51
:10063000F7000F30F7057708A800A9000A30AA00D4
:10064000B32122080F397807A200230EF7000F30DC
:10065000F7057708A800A9000A30AA00B3212308EB
:100660000F397807A300A308031D492B0C30A30002
:10067000A701A801243084008313270884072808D1
:100680000C20800000380319482BA80AA70A3A2B2F
:10069000852B23080B3C031C5E2BA701A8012430EB
:1006A000840083132708840728080C208000003862
:1006B00003195D2BA80AA70A4F2B852B23080C3C96
:1006C000031D732BA701A80124308400831327087E
:1006D000840728081320800000380319722BA80A09
:1006E000A70A642B852B0C30A302A701A801243094
:1006F000840083132708840728081320800000380B
:100700000319852BA80AA70A772B0130AE00AF008A
:10071000D8212308A7000130A8002B223A30AD00D1
:10072000FF212208A7000130A8002B223A30AD009B
:10073000FF212108A7000130A8002B222030AD00A6
:10074000FF21243084008313822A0430A700FA306A
:0C075000AE001A20A70BA72BA92A6300FB
:02400E00313F40
:00000001FF
;PIC16F877A
;CRC=7C79  CREATED="15-Sep-25 22:05"
