:1000000002308A00862A0000FF00030E8301A1004F
:100010000A08A0008A010408A2007708A300780853
:10002000A4007908A5007A08A600831383128C30F7
:100030008400001C1D280C182E2822088400230888
:10004000F7002408F8002508F9002608FA0020081F
:100050008A00210E8300FF0E7F0E09008A110A120A
:1000600039280A108A100A11820728340C34013406
:1000700006348E010B308F00DC308E00A70A270873
:100080003B3C03184F28A701A80A28083B3C03184B
:100090004F28A801A90A2908173C031CA901270811
:1000A0000139013C031D61282A102A0883168700A4
:1000B00083120714AA102A08831687008312871058
:1000C0006D282A102A088316870083120710AA10A9
:1000D0002A0883168700831287140C108A110A12CB
:1000E0001D28D434ED323A102518B23ABA1230191C
:1000F000751D2518B23A00003130840083130008C2
:10010000031990280130F800F701F70B8528F80B48
:1001100084284A30F700F70B8B288E28800B822822
:100120000800381895280612962806168316061217
:100130008312B8189D2886129E288616831686126A
:1001400083123819A5280613A62806178316061346
:100150008312B819AD288613AE2886178316861326
:1001600000008312061583160611B62883120611A5
:100170008316061183120800B90183160616003093
:100180008312061A0130B9048316861600308312D2
:10019000861A0130F7000310F70D7708B9048316AB
:1001A000061700308312061B0130F700F70DF70D1C
:1001B000FC30F7057708B9048316861700308312E0
:1001C000861B0130F700F70DF70DF70DF830F70536
:1001D0007708B9043908F8000800831606110610DC
:1001E000861083120610831606100616861606174A
:1001F0008617831286148316861000008312061554
:100200008316061100008312BC207808B80006117E
:1002100083160611000083120615831606110000CE
:100220008312BC207808B700061183160611061247
:100230008612061386138312380EF700F030F70586
:1002400077083704F8007808B700B71F2929831604
:10025000F528B508031D2E2906102F29061483162C
:100260000610000083128610831686100000831289
:100270000611831606118312360EB7000F30B7052C
:100280003708B800912036080F39B700B800912020
:10029000080083160612861206138613061106102E
:1002A000861083120610831606108312861083169A
:1002B000861083120611831606110F308312B100C7
:1002C0007C200130AB002B08033C031C6F2903305A
:1002D000B80091200530B1007C20AB0A63290230C0
:1002E000B80091200530B1007C20AB012B08033C05
:1002F000031C83292B083120AC00B5012C08B60063
:10030000ED20AB0A76298A110A12982A320B892924
:100310008C294030B3008D29B30101303102B3077D
:1003200033088038B400B5013408B600ED20080069
:100330003008073A0319A6290B3A0319AB29063AE4
:100340000319B329023A0319B929BE290130B100B2
:10035000B2008621C329B5010130B600ED2002307C
:10036000B1007C20C3290130B1000230B2008621E7
:10037000C329B5011030B600ED20C3290130B50006
:100380003008B600ED2008002E08F8012D020318F1
:10039000CC292D08F700D829F7010830AF00AD0DA2
:1003A000F70D2E0877020318F700F80DAF0BCF29D1
:1003B000080078082B08AD006430AE00C42177082F
:1003C000AB0078083030031DEC29AC1CF329AC19C4
:1003D000F3292C1A2030EF29AC112C122C14F80719
:1003E0007808B00098212B08AD000A30AE00C42177
:1003F0007708AB0078083030031D042AAC19082AAE
:100400002C1C082A2C1A2030F8077808B0009821F4
:100410003030AB072B08B000982108000130B10044
:10042000B2008621713003178D0000308F00031059
:1004300006300313AB000B08AC008B1383160317B5
:100440008C170C140000000003184D2A83120C08AE
:100450007F390313AD0003170D080313AE00031714
:100460000F080313AF002D08B00098212E080317C2
:100470008D0003132F0803178F0083168C170C149D
:100480000000000083120313AB0B472A4A2A83168D
:1004900003174D2A6C2A8316031783120C0D0E0DB9
:1004A0007F390313AD0003170D080313AE000317C4
:1004B0000F080313AF002D08B00098212E08031772
:1004C0008D0003132F0803178F008D0A03198F0A5D
:1004D00003100313AB0B1E2AAC1B8B172908AB00B0
:1004E0000130AC00D9213A30B00098212808AB0087
:1004F0000130AC00D9213A30B00098212708AB0078
:100500000130AC00D9218A110A12B12A03081F391F
:100510008300A701A801A901FF30AA0083161F14B8
:100520009F141F159F1107309C00831383124929C4
:100530002A102A088316870083120710AA102A0897
:100540008316870083128710B53090008E010B3020
:100550008F00DC308E0083160C14C03083128B04A5
:0C0560000E2A6430B1007C20B02A630039
:02400E00313F40
:00000001FF
;PIC16F877A
;CRC=09B3  CREATED="13-Aug-25 09:18"
