:1000000000308A00292800000A108A100A1182078D
:10001000C034F934A434B034993492348234F8348E
:100020008034903423308400831300080319262879
:100030000130F800F701F70B1B28F80B1A284A309B
:10004000F700F70B21282428800B18288A110A12A0
:10005000472803081F39830083161F149F141F1598
:100060009F1107309C0083138312A1012108093CD2
:10007000031C4B2821080420A20083168701831249
:10008000220887000430A200FA30A3001228A20B35
:0A0090004428A10A36283528630031
:02400E00313F40
:00000001FF
;PIC16F877A
;CRC=EF8A  CREATED="09-Jul-25 09:37"
