:1000000004308A00B82C00000A108A100A118207F6
:1000100028340C34013406344122C3182022E93339
:100020003A1025183426750041376136EF333A10FF
:10003000A5182E196610561080144122431920224B
:10004000E9333A1025183426750041376136EF330D
:100050003A10A5182E19661056100000363084008C
:1000600083130008031942280130F800F701F70B49
:100070003728F80B36284A30F700F70B3D28402880
:10008000800B342808003D18472806124828061619
:10009000831606128312BD184F2886125028861622
:1000A0008316861283123D195728061358280617FF
:1000B000831606138312BD195F28861360288617DE
:1000C000831686130000831206158316061168280E
:1000D000831206118316061183120800BE018316CF
:1000E000061600308312061A0130BE0483168616E7
:1000F00000308312861A0130F7000310F70D7708DD
:10010000BE048316061700308312061B0130F70069
:10011000F70DF70DFC30F7057708BE048316861738
:1001200000308312861B0130F700F70DF70DF70D35
:10013000F830F7057708BE043E08F800080083167B
:100140000611061086108312061083160610061676
:1001500086160617861783128614831686100000EB
:100160008312061583160611000083126E2078088C
:10017000BD000611831606110000831206158316B2
:100180000611000083126E207808BC000611831649
:100190000611061286120613861383123D0EF7000F
:1001A000F030F70577083C04F8007808BC00BC1F65
:1001B000DB288316A728BA08031DE0280610E128CB
:1001C000061483160610000083128610831686100C
:1001D0000000831206118316061183123B0EBC0029
:1001E0000F30BC053C08BD0043203B080F39BC0064
:1001F000BD004320080083160612861206138613DC
:10020000061106108610831206108316061083123C
:1002100086108316861083120611831606110F307E
:100220008312B6002E200130A8002808033C031CCE
:1002300021290330BD0043200530B6002E20A80A36
:1002400015290230BD0043200530B6002E20A8013C
:100250002808033C031C352928080420A900BA01FA
:100260002908BB009F20A80A28298A110A12C52C38
:100270008E30F7002908F8002808F900FA01F8087C
:10028000031D4C297908F800F9010830F702F80835
:10029000031D4C29F70154290310F81B5329F90DAC
:1002A000F80DF7034C29F813080035080319C52980
:1002B000BD0039080319C529BD07031866297F3019
:1002C000BD02031CC5290319C5296A298130BD0750
:1002D0000318C5293D08F700F801F901FA013608AD
:1002E000C100C1173708C0003808BF001830BD0072
:1002F000BE013F1C93293C08FA07031C8529F90A13
:10030000031D8529F80A0319BE173B08F907031CCA
:100310008C29F80A0319BE173A08B700B71737082F
:10032000F8070318BE17BE0DF80CF90CFA0CC10C37
:10033000C00CBF0C0310BD0B78290130F707031860
:10034000C529F81BAA29C10DFA0DF90DF80DF703FF
:100350000319C529C11FBB29FA0A031DBB29F90AC4
:10036000031DBB29F80A031DBB29F80CF90CFA0C74
:10037000F70A0319C5293608BE003A08BE06BE1F93
:10038000C329F817C929F813C929F701F801F90198
:10039000FA0108002C0803198F2AB8003008031945
:1003A0008F2AB802031CD9297F30B80703188F2A77
:1003B000DF298130B802031C8F2A03198F2A3808DD
:1003C000F700F801F901FA01B7012D08B600B617D8
:1003D0002E08B5002F08B4001930B8003308B40255
:1003E0000318022A0130B5020318022AB6020318C4
:1003F000022AB7020318022AB70AB60AB50A330856
:10040000B407342A3208B50203181D2A0130B60297
:1004100003181D2AB70203181D2AB70AB60A3208A4
:10042000B5073308B407031C342AB50A031D342A60
:10043000B60A031D342AB70A342A31088038B602B6
:100440000318332A0130B7020318332AB70A3108D8
:100450008038B6073208B507031C112AB60A031DF7
:10046000112AB70A112A7A14B80B372A422A031024
:10047000B40DB50DB60DB70D0310FA0DF90DF80D4D
:10048000B90DEE29391C4A2A0310F80CF90CFA0CA4
:10049000B90C4D2AF70303198F2AB91B762A0310CA
:1004A000B40DB50DB60DB70D3308B4020318622AAA
:1004B0000130B5020318622AB6020318622AB70295
:1004C000031C852A3208B50203186D2A0130B602D2
:1004D00003186D2AB702031C852A31088038B6023A
:1004E0000318762A0130B702031C852AFA0A031D75
:1004F000852AF90A031D852AF80A031D852AF70AA9
:1005000003198F2AF80CF90CFA0C2D08B8003108E1
:10051000B806B81F8D2AF817932AF813932AF70103
:10052000F801F901FA010800370B972A9A2A40309E
:10053000B8009B2AB80101303602B8073808803865
:10054000B900BA013908BB009F2008003508073AF6
:100550000319B42A0B3A0319B92A063A0319C12A16
:10056000023A0319C72ACC2A0130B600B7009422F8
:10057000D12ABA010130BB009F200230B6002E20E4
:10058000D12A0130B6000230B7009422D12ABA0134
:100590001030BB009F20D12A0130BA003508BB00C3
:1005A0009F2008000B08A9008B13831603178C17D4
:1005B0000C14000000000318042B83120C087F3970
:1005C0000313AA0003170D080313AB0003170F084A
:1005D0000313AC002A08B500A6222B0803178D00D0
:1005E00003132C0803178F0083168C170C140000BC
:1005F000000083120313A80BFE2A012B8316031796
:10060000042B232B8316031783120C0D0E0D7F3939
:100610000313AA0003170D080313AB0003170F08F9
:100620000313AC002A08B500A6222B0803178D007F
:1006300003132C0803178F008D0A03198F0A031068
:100640000313A80BD52AA91B8B170800B0010408B7
:10065000AF003010831B3014290EF038AB00AB070D
:10066000E23EAC00323EAE0029080F39AC07AC07C1
:10067000AE07E93EAD00AD07AD07280E0F39AD0757
:10068000AE07AD0DAE0DAE09AE0D28080F39AE07A1
:10069000AB0D0730AA000A30AE07AD03031C4C2B8C
:1006A000AD07AC03031C502BAC07AB03031C542B4E
:1006B000AB07AA03031C582B2A308400831307308E
:1006C0002F052F1384072E30040203192F1700085B
:1006D000F700031D732B2F1B732B2F1A852BAF19BC
:1006E000732B2030762BAF152F123030F707A9016E
:1006F0000408A8002910831B29147708B500A62236
:1007000028088400831329188317840A2F1F632B5A
:10071000080083188E2B3D3084008313F701F80105
:10072000F901FA01BD01BE01BF01C0013C083B0453
:100730003A0439040319CC2B2030C1000310B50D45
:10074000B60DB70DB80DBD0DBE0DBF0DC00D3C08EB
:100750004002031DB52B3B083F02031DB52B3A0891
:100760003E02031DB52B39083D02031CC62B390878
:10077000BD023A08031C3A0FBE023B08031C3B0FA4
:10078000BF023C08031C3C0FC0020314F70DF80D18
:10079000F90DFA0DC10B9E2B3D088000840A3E081E
:1007A0008000840A3F088000840A40088000080016
:1007B0000408AD002C08AF000319F72B2B08B80074
:1007C0002A08B7002908B6002808B500BC01BB01FB
:1007D0002030BA008230B90055217A08AB00790880
:1007E000AA007808A9007708A800AF0BDE2B2B0819
:1007F000B8002A08B7002908B6002808B50035084F
:10080000B63CB500FA013608B900B6170310B60CAD
:10081000B70CB80CFA0CF90CF80CF70CB50B062C4D
:10082000B91F1D2CF709F809F909FA09F70A031984
:10083000F80A0319F90A0319FA0A7A08AB007908C9
:10084000AA007808A9007708A800AB1F342CAD03D4
:10085000AD16A809A909AA09AB09A80A0319A90A8A
:100860000319AA0A0319AB0A3B30B4009A30B3004B
:10087000CA30B200B1010A30AF002C080319AD0A2A
:1008800083142830840083132B08B8002A08B7008B
:100890002908B6002808B5003408BC003308BB009E
:1008A0003208BA003108B90089237808F708031D17
:1008B0006C2C2C0A2F0203196C2C2D0803196E2C9A
:1008C0000F392F020319662C03189E2CAD1B9E2C8A
:1008D0002D1B6E2C20309A2C2030AD05AD1E7C2CAB
:1008E000AD122C08031DAD037708AD002D30B50007
:1008F000A6222D08F700AD012C082F02031D8A2C1B
:100900007708AD002E30B500A6222D08F700203064
:10091000AD0500303030AD1E9A2CAD122C08031DF1
:10092000AD037708AD002D30B500A6222D08F700E5
:10093000AD013030F7077708B500A62283103408E0
:10094000B8003308B7003208B6003108B500BC0162
:10095000BB01BA010A30B90089237A08B4007908CA
:10096000B3007808B2007708B100AF0B402C080044
:1009700003081F39830083161F149F141F159F112E
:1009800007309C0083138312FB2883161F109F10CF
:100990001F119F111F1383121F179F1783169F1775
:1009A00083121F14FE308316870083120718622DEE
:1009B0000030F8001F08C73978049F000A30B600DD
:1009C0002E201F1527101F1D27142718EB2C27106A
:1009D0001F1D2714E52C1F19EB2C83161E088312EC
:1009E000A1001E08A2002208A9002108A8003821A1
:1009F0007A08B8007908B7007808B6007708B5001B
:100A0000BC01BB012030BA008130B90055217A0801
:100A1000AB007908AA007808A9007708A8007A082E
:100A2000AF007908AE007808AD007708AC00B301DC
:100A3000C030B2007F30B1008830B000CA217A08DF
:100A4000A6007908A5007808A4007708A300013063
:100A5000B600B70094220C3003178D0000308F00D1
:100A600003100A300313A800D222093084002208A0
:100A7000A9002108A80026230130B6000230B700E3
:100A80009422143003178D0000308F0003100830BB
:100A90000313A800D222893084002608AB00250861
:100AA000AA002408A9002308A8000230AC00D8231B
:100AB0002030B500A6225630B500A6222030B50061
:100AC000A622EB2D0830F8001F08C73978049F00D4
:100AD0000A30B6002E201F15A7101F1DA714A71837
:100AE000752DA7101F1DA7146F2D1F19752D8316A7
:100AF0001E088312A1001E08A2002208A9002108D6
:100B0000A80038217A08B8007908B7007808B6003C
:100B10007708B500BC01BB012030BA008130B900B4
:100B200055217A08AB007908AA007808A90077084F
:100B3000A8007A08AF007908AE007808AD00770801
:100B4000AC00B301C030B2007F30B1008830B000DB
:100B5000CA217A08A6007908A5007808A4007708B9
:100B6000A3000130B600B70094221D3003178D009A
:100B700000308F0003100A300313A800D22209307E
:100B800084002208A9002108A80026230130B6000D
:100B90000230B7009422253003178D0000308F00FB
:100BA000031008300313A800D222893084002608DD
:100BB000AB002508AA002408A9002308A8000230D9
:100BC000AC00D8232030B500A6225630B500A622AE
:100BD0002030B500A622C830B6002E20D22C6300EB
:02400E00313F40
:00000001FF
;PIC16F877A
;CRC=C7A3  CREATED="07-Aug-25 20:34"
