:1000000000308A00292800000A108A100A1182078D
:100010003F3406345B344F3466346D347D340734FA
:100020007F346F342330840083130008031926289B
:100030000130F800F701F70B1B28F80B1A284A309B
:10004000F700F70B21282428800B18288A110A12A0
:10005000632803081F398300FF30A00083161F1494
:100060009F141F159F1107309C0083138312A10159
:1000700021080420A2008030831686008312220803
:10008000860020142008831687008312071C4E2840
:10009000A10A2108093C031CA1015528A108031D40
:1000A00054280930A1005528A10321080420A200EA
:1000B0008030831686008312220886000430A20056
:0E00C000FA30A3001228A20B6028412863002A
:02400E00313F40
:00000001FF
;PIC16F877A
;CRC=9578  CREATED="09-Jul-25 19:23"
