:1000000001308A006B2900000A108A100A11820749
:1000100028340C3401340634503084008313000833
:10002000031920280130F800F701F70B1528F80B09
:1000300014284A30F700F70B1B281E28800B1228C3
:1000400008005718252806122628061683160612B9
:100050008312D7182D2886122E288616831686120C
:1000600083125719352806133628061783160613E8
:100070008312D7193D2886133E28861783168613C8
:1000800000008312061483160610462883120610F9
:100090008316061083120800D80183160616003056
:1000A0008312061A0130D804831686160030831294
:1000B000861A0130F7000310F70D7708D80483166D
:1000C000061700308312061B0130F700F70DF70DFD
:1000D000FC30F7057708D8048316861700308312A2
:1000E000861B0130F700F70DF70DF70DF830F70517
:1000F0007708D8045808F800080083160610861000
:1001000006118312861083168610061686160617A9
:100110008617831206158316061100008312061433
:1001200083160610000083124C207808D7000610B2
:1001300083160610000083120614831606100000B2
:1001400083124C207808D60006108316061006127B
:100150008612061386138312570EF700F030F70548
:1001600077085604F8007808D600D61FB9288316F9
:100170008528D408031DBE288610BF288614831640
:1001800086100000831206118316061100008312E8
:100190000610831606108312550ED6000F30D605B2
:1001A0005608D700212055080F39D600D700212046
:1001B0000800831606128612061386130610861090
:1001C0000611831286108316861083120611831679
:1001D000061183120610831606100F308312D0000A
:1001E0000C200130CB004B08033C031CFF280330DC
:1001F000D70021200530D0000C20CB0AF328023094
:10020000D70021200530D0000C20CB014B08033C47
:10021000031C13294B080420CC00D4014C08D50042
:100220007D20CB0A06298A110A12C629510B1929E9
:100230001C294030D2001D29D20101305002D207C2
:1002400052088038D300D4015308D5007D2008001F
:10025000800803196829CE010408CD004E10831BC5
:100260004E140008CF004F08073A031941290B3AF2
:1002700003194629063A03194E29023A031954294B
:1002800059290130D000D10016215F29D401013055
:10029000D5007D200230D0000C205F290130D00035
:1002A0000230D10016215F29D4011030D5007D2005
:1002B0005F290130D4004F08D5007D205F294D080B
:1002C000840083134E188317840A0319850A28298A
:1002D0008A110A12DB2903081F39830083161F14B1
:1002E0009F141F159F1107309C0083132030831229
:1002F000A100A2004B30A3004F30A4004E30A50057
:100300004730A6005530A7002030A8004530A9008E
:100310004E30AA004730AB004930AC004E30AD0043
:100320004530AE00AF005230B0004930B1004E3021
:10033000B2004730B3002030B4004330B5004F3036
:10034000B6004C30B700B8004530B9004730BA00AD
:100350004530BB002030BC005030BD004530BE00F1
:100360005230BF005530C0004E30C1004430C20092
:100370005530C3005230C4004130C5004930C6007A
:100380002030C700C800C901CA01D928CA014A08DB
:10039000163C031CE4290130D000D1001621213085
:1003A0004A07CB00CC010318CC0A4B088400831306
:1003B0004C18831728290230CB00C830D0000C20FD
:0C03C000CB0BDD29CA0AC729C62963003F
:02400E00313F40
:00000001FF
;PIC16F877A
;CRC=7A43  CREATED="30-Jul-25 10:25"
