:1000000000308A0019280000213084008313000882
:10001000031918280130F800F701F70B0D28F80B29
:100020000C284A30F700F70B13281628800B0A28F3
:10003000080003081F39830083161F149F141F151F
:100040009F1107309C008313860155308312860070
:100050006430A10004208316860183128601643077
:10006000A100042083168601AA3083128600643022
:10007000A100042083168601831286016430A1004A
:0800800004208316242863000C
:02400E00313F40
:00000001FF
;PIC16F877A
;CRC=7F4D  CREATED="02-Jul-25 15:34"
